{
  "_format": "hh-sol-artifact-1",
  "contractName": "SimpleSwap",
  "sourceName": "contracts/SimpleSwap.sol",
  "abi": [
    {
      "inputs": [],
      "stateMutability": "nonpayable",
      "type": "constructor"
    },
    {
      "inputs": [
        {
          "internalType": "address",
          "name": "owner",
          "type": "address"
        }
      ],
      "name": "OwnableInvalidOwner",
      "type": "error"
    },
    {
      "inputs": [
        {
          "internalType": "address",
          "name": "account",
          "type": "address"
        }
      ],
      "name": "OwnableUnauthorizedAccount",
      "type": "error"
    },
    {
      "anonymous": false,
      "inputs": [
        {
          "indexed": true,
          "internalType": "uint256",
          "name": "poolId",
          "type": "uint256"
        },
        {
          "indexed": true,
          "internalType": "address",
          "name": "provider",
          "type": "address"
        },
        {
          "indexed": false,
          "internalType": "uint256",
          "name": "amountA",
          "type": "uint256"
        },
        {
          "indexed": false,
          "internalType": "uint256",
          "name": "amountB",
          "type": "uint256"
        }
      ],
      "name": "LiquidityAdded",
      "type": "event"
    },
    {
      "anonymous": false,
      "inputs": [
        {
          "indexed": true,
          "internalType": "address",
          "name": "previousOwner",
          "type": "address"
        },
        {
          "indexed": true,
          "internalType": "address",
          "name": "newOwner",
          "type": "address"
        }
      ],
      "name": "OwnershipTransferred",
      "type": "event"
    },
    {
      "anonymous": false,
      "inputs": [
        {
          "indexed": true,
          "internalType": "uint256",
          "name": "poolId",
          "type": "uint256"
        },
        {
          "indexed": false,
          "internalType": "address",
          "name": "tokenA",
          "type": "address"
        },
        {
          "indexed": false,
          "internalType": "address",
          "name": "tokenB",
          "type": "address"
        }
      ],
      "name": "PoolCreated",
      "type": "event"
    },
    {
      "anonymous": false,
      "inputs": [
        {
          "indexed": true,
          "internalType": "uint256",
          "name": "poolId",
          "type": "uint256"
        },
        {
          "indexed": true,
          "internalType": "address",
          "name": "user",
          "type": "address"
        },
        {
          "indexed": false,
          "internalType": "address",
          "name": "tokenIn",
          "type": "address"
        },
        {
          "indexed": false,
          "internalType": "uint256",
          "name": "amountIn",
          "type": "uint256"
        },
        {
          "indexed": false,
          "internalType": "uint256",
          "name": "amountOut",
          "type": "uint256"
        }
      ],
      "name": "Swapped",
      "type": "event"
    },
    {
      "inputs": [
        {
          "internalType": "uint256",
          "name": "poolId",
          "type": "uint256"
        },
        {
          "internalType": "uint256",
          "name": "amountA",
          "type": "uint256"
        },
        {
          "internalType": "uint256",
          "name": "amountB",
          "type": "uint256"
        }
      ],
      "name": "addLiquidity",
      "outputs": [],
      "stateMutability": "nonpayable",
      "type": "function"
    },
    {
      "inputs": [
        {
          "internalType": "address",
          "name": "tokenA",
          "type": "address"
        },
        {
          "internalType": "address",
          "name": "tokenB",
          "type": "address"
        }
      ],
      "name": "createPool",
      "outputs": [
        {
          "internalType": "uint256",
          "name": "",
          "type": "uint256"
        }
      ],
      "stateMutability": "nonpayable",
      "type": "function"
    },
    {
      "inputs": [],
      "name": "owner",
      "outputs": [
        {
          "internalType": "address",
          "name": "",
          "type": "address"
        }
      ],
      "stateMutability": "view",
      "type": "function"
    },
    {
      "inputs": [],
      "name": "poolCount",
      "outputs": [
        {
          "internalType": "uint256",
          "name": "",
          "type": "uint256"
        }
      ],
      "stateMutability": "view",
      "type": "function"
    },
    {
      "inputs": [
        {
          "internalType": "uint256",
          "name": "",
          "type": "uint256"
        }
      ],
      "name": "pools",
      "outputs": [
        {
          "internalType": "address",
          "name": "tokenA",
          "type": "address"
        },
        {
          "internalType": "address",
          "name": "tokenB",
          "type": "address"
        },
        {
          "internalType": "uint256",
          "name": "reserveA",
          "type": "uint256"
        },
        {
          "internalType": "uint256",
          "name": "reserveB",
          "type": "uint256"
        }
      ],
      "stateMutability": "view",
      "type": "function"
    },
    {
      "inputs": [],
      "name": "renounceOwnership",
      "outputs": [],
      "stateMutability": "nonpayable",
      "type": "function"
    },
    {
      "inputs": [
        {
          "internalType": "uint256",
          "name": "poolId",
          "type": "uint256"
        },
        {
          "internalType": "address",
          "name": "tokenIn",
          "type": "address"
        },
        {
          "internalType": "uint256",
          "name": "amountIn",
          "type": "uint256"
        }
      ],
      "name": "swap",
      "outputs": [
        {
          "internalType": "uint256",
          "name": "amountOut",
          "type": "uint256"
        }
      ],
      "stateMutability": "nonpayable",
      "type": "function"
    },
    {
      "inputs": [
        {
          "internalType": "address",
          "name": "newOwner",
          "type": "address"
        }
      ],
      "name": "transferOwnership",
      "outputs": [],
      "stateMutability": "nonpayable",
      "type": "function"
    }
  ],
  "bytecode": "0x608060405234801561001057600080fd5b50338061003757604051631e4fbdf760e01b81526000600482015260240160405180910390fd5b61004081610046565b50610096565b600080546001600160a01b038381166001600160a01b0319831681178455604051919092169283917f8be0079c531659141344cd1fd0a4f28419497f9722a3daafe3b4186f6b6457e09190a35050565b6109cc806100a56000396000f3fe608060405234801561001057600080fd5b50600436106100885760003560e01c8063ac4afa381161005b578063ac4afa38146100eb578063e34336151461015a578063f2fde38b1461016d578063f525cb681461018057600080fd5b8063422f10431461008d57806343264349146100a2578063715018a6146100c85780638da5cb5b146100d0575b600080fd5b6100a061009b3660046107fb565b610189565b005b6100b56100b0366004610843565b610359565b6040519081526020015b60405180910390f35b6100a061064c565b6000546040516001600160a01b0390911681526020016100bf565b61012f6100f9366004610878565b600160208190526000918252604090912080549181015460028201546003909201546001600160a01b0393841693909116919084565b604080516001600160a01b0395861681529490931660208501529183015260608201526080016100bf565b6100b5610168366004610891565b610660565b6100a061017b3660046108c4565b610740565b6100b560025481565b600083815260016020526040902080546001600160a01b03166101e95760405162461bcd60e51b8152602060048201526013602482015272141bdbdb08191bd95cc81b9bdd08195e1a5cdd606a1b60448201526064015b60405180910390fd5b80546040516323b872dd60e01b8152336004820152306024820152604481018590526001600160a01b03909116906323b872dd906064016020604051808303816000875af115801561023f573d6000803e3d6000fd5b505050506040513d601f19601f8201168201806040525081019061026391906108e6565b5060018101546040516323b872dd60e01b8152336004820152306024820152604481018490526001600160a01b03909116906323b872dd906064016020604051808303816000875af11580156102bd573d6000803e3d6000fd5b505050506040513d601f19601f820116820180604052508101906102e191906108e6565b50828160020160008282546102f6919061091e565b9250508190555081816003016000828254610311919061091e565b90915550506040805184815260208101849052339186917f4f523f2d8e587b404d27e399464f42a7ffc415da39a6130a6e0e6d3be9128326910160405180910390a350505050565b600083815260016020526040812080546001600160a01b03166103b45760405162461bcd60e51b8152602060048201526013602482015272141bdbdb08191bd95cc81b9bdd08195e1a5cdd606a1b60448201526064016101e0565b80546001600160a01b0385811691161480806103df575060018201546001600160a01b038681169116145b61041b5760405162461bcd60e51b815260206004820152600d60248201526c24b73b30b634b2103a37b5b2b760991b60448201526064016101e0565b60008161042c578260030154610432565b82600201545b905060008261044557836002015461044b565b83600301545b9050610457868361091e565b6104618288610931565b61046b9190610948565b6040516323b872dd60e01b8152336004820152306024820152604481018890529095506001600160a01b038816906323b872dd906064016020604051808303816000875af11580156104c1573d6000803e3d6000fd5b505050506040513d601f19601f820116820180604052508101906104e591906108e6565b50826104fb5783546001600160a01b031661050a565b60018401546001600160a01b03165b60405163a9059cbb60e01b8152336004820152602481018790526001600160a01b03919091169063a9059cbb906044016020604051808303816000875af1158015610559573d6000803e3d6000fd5b505050506040513d601f19601f8201168201806040525081019061057d91906108e6565b5082156105be5785846002016000828254610598919061091e565b92505081905550848460030160008282546105b3919061096a565b909155506105f39050565b858460030160008282546105d2919061091e565b92505081905550848460020160008282546105ed919061096a565b90915550505b604080516001600160a01b038916815260208101889052908101869052339089907f5aa9c046ed70d3b748fc3ef79236e405659554feb8601d0f9eff63bf14586b7d9060600160405180910390a3505050509392505050565b61065461077e565b61065e60006107ab565b565b600061066a61077e565b600280546000918261067b8361097d565b90915550604080516080810182526001600160a01b0387811680835287821660208085018281526000868801818152606088018281528a83526001808652928a9020985189549089166001600160a01b0319918216178a559351928901805493909816929093169190911790955593516002860155925160039094019390935583519081529081019190915291925082917f1a7a1d16c3ec9167827a7be3534be26288720a0bdd3de56d290f415db3d3e0a6910160405180910390a290505b92915050565b61074861077e565b6001600160a01b03811661077257604051631e4fbdf760e01b8152600060048201526024016101e0565b61077b816107ab565b50565b6000546001600160a01b0316331461065e5760405163118cdaa760e01b81523360048201526024016101e0565b600080546001600160a01b038381166001600160a01b0319831681178455604051919092169283917f8be0079c531659141344cd1fd0a4f28419497f9722a3daafe3b4186f6b6457e09190a35050565b60008060006060848603121561081057600080fd5b505081359360208301359350604090920135919050565b80356001600160a01b038116811461083e57600080fd5b919050565b60008060006060848603121561085857600080fd5b8335925061086860208501610827565b9150604084013590509250925092565b60006020828403121561088a57600080fd5b5035919050565b600080604083850312156108a457600080fd5b6108ad83610827565b91506108bb60208401610827565b90509250929050565b6000602082840312156108d657600080fd5b6108df82610827565b9392505050565b6000602082840312156108f857600080fd5b815180151581146108df57600080fd5b634e487b7160e01b600052601160045260246000fd5b8082018082111561073a5761073a610908565b808202811582820484141761073a5761073a610908565b60008261096557634e487b7160e01b600052601260045260246000fd5b500490565b8181038181111561073a5761073a610908565b60006001820161098f5761098f610908565b506001019056fea264697066735822122049d0bd476e0c57a2109462fa3f316db6fee80bb28f6989f3ac17d8a7cb5a0aa964736f6c63430008160033",
  "linkReferences": {},
  "deployedLinkReferences": {}
}