{"contracts/MaliciousContract.sol":{"MaliciousContract":{"abi":[{"inputs":[],"stateMutability":"nonpayable","type":"constructor"},{"anonymous":false,"inputs":[{"indexed":true,"internalType":"address","name":"to","type":"address"},{"indexed":false,"internalType":"uint256","name":"amount","type":"uint256"}],"name":"FundsWithdrawn","type":"event"},{"anonymous":false,"inputs":[{"indexed":true,"internalType":"address","name":"previousOwner","type":"address"},{"indexed":true,"internalType":"address","name":"newOwner","type":"address"}],"name":"OwnerChanged","type":"event"},{"inputs":[{"internalType":"address","name":"","type":"address"}],"name":"balances","outputs":[{"internalType":"uint256","name":"","type":"uint256"}],"stateMutability":"view","type":"function"},{"inputs":[],"name":"deposit","outputs":[],"stateMutability":"payable","type":"function"},{"inputs":[],"name":"destroy","outputs":[],"stateMutability":"nonpayable","type":"function"},{"inputs":[],"name":"owner","outputs":[{"internalType":"address","name":"","type":"address"}],"stateMutability":"view","type":"function"},{"inputs":[{"internalType":"address","name":"newOwner","type":"address"}],"name":"transferOwnership","outputs":[],"stateMutability":"nonpayable","type":"function"},{"inputs":[],"name":"vulnerableWithdraw","outputs":[],"stateMutability":"nonpayable","type":"function"},{"inputs":[],"name":"withdrawAll","outputs":[],"stateMutability":"nonpayable","type":"function"},{"stateMutability":"payable","type":"receive"}],"evm":{"bytecode":{"linkReferences":{},"object":"608060405234801561001057600080fd5b50600080546001600160a01b03191633179055610560806100326000396000f3fe6080604052600436106100745760003560e01c8063853828b61161004e578063853828b6146101115780638da5cb5b14610126578063d0e30db01461015e578063f2fde38b1461016657600080fd5b806327e235e3146100a5578063710957cc146100e557806383197ef0146100fc57600080fd5b366100a05733600090815260016020526040812080543492906100989084906104b0565b925050819055005b600080fd5b3480156100b157600080fd5b506100d26100c03660046104d7565b60016020526000908152604090205481565b6040519081526020015b60405180910390f35b3480156100f157600080fd5b506100fa610186565b005b34801561010857600080fd5b506100fa6102d2565b34801561011d57600080fd5b506100fa61030a565b34801561013257600080fd5b50600054610146906001600160a01b031681565b6040516001600160a01b0390911681526020016100dc565b6100fa610410565b34801561017257600080fd5b506100fa6101813660046104d7565b610436565b60025460ff16156101cf5760405162461bcd60e51b815260206004820152600e60248201526d1499595b9d1c985b9d0818d85b1b60921b60448201526064015b60405180910390fd5b6002805460ff1916600190811790915533600090815260209190915260409020548061022a5760405162461bcd60e51b815260206004820152600a6024820152694e6f2062616c616e636560b01b60448201526064016101c6565b604051600090339083908381818185875af1925050503d806000811461026c576040519150601f19603f3d011682016040523d82523d6000602084013e610271565b606091505b50509050806102b45760405162461bcd60e51b815260206004820152600f60248201526e151c985b9cd9995c8819985a5b1959608a1b60448201526064016101c6565b5050336000908152600160205260408120556002805460ff19169055565b6000546001600160a01b031633146102fc5760405162461bcd60e51b81526004016101c690610507565b6000546001600160a01b0316ff5b6000546001600160a01b031633146103345760405162461bcd60e51b81526004016101c690610507565b600080546040514792916001600160a01b03169083908381818185875af1925050503d8060008114610382576040519150601f19603f3d011682016040523d82523d6000602084013e610387565b606091505b50509050806103ca5760405162461bcd60e51b815260206004820152600f60248201526e151c985b9cd9995c8819985a5b1959608a1b60448201526064016101c6565b6000546040518381526001600160a01b03909116907feaff4b37086828766ad3268786972c0cd24259d4c87a80f9d3963a3c3d999b0d9060200160405180910390a25050565b336000908152600160205260408120805434929061042f9084906104b0565b9091555050565b6000546001600160a01b031633146104605760405162461bcd60e51b81526004016101c690610507565b600080546001600160a01b038381166001600160a01b0319831681178455604051919092169283917fb532073b38c83145e3e5135377a08bf9aab55bc0fd7c1179cd4fb995d2a5159c9190a35050565b808201808211156104d157634e487b7160e01b600052601160045260246000fd5b92915050565b6000602082840312156104e957600080fd5b81356001600160a01b038116811461050057600080fd5b9392505050565b6020808252600990820152682737ba1037bbb732b960b91b60408201526060019056fea2646970667358221220740af6e6059446bcbc0cf42a2018094139a74230843632248a26231f7e5a35ab64736f6c63430008160033","opcodes":"PUSH1 0x80 PUSH1 0x40 MSTORE CALLVALUE DUP1 ISZERO PUSH2 0x10 JUMPI PUSH1 0x0 DUP1 REVERT JUMPDEST POP PUSH1 0x0 DUP1 SLOAD PUSH1 0x1 PUSH1 0x1 PUSH1 0xA0 SHL SUB NOT AND CALLER OR SWAP1 SSTORE PUSH2 0x560 DUP1 PUSH2 0x32 PUSH1 0x0 CODECOPY PUSH1 0x0 RETURN INVALID PUSH1 0x80 PUSH1 0x40 MSTORE PUSH1 0x4 CALLDATASIZE LT PUSH2 0x74 JUMPI PUSH1 0x0 CALLDATALOAD PUSH1 0xE0 SHR DUP1 PUSH4 0x853828B6 GT PUSH2 0x4E JUMPI DUP1 PUSH4 0x853828B6 EQ PUSH2 0x111 JUMPI DUP1 PUSH4 0x8DA5CB5B EQ PUSH2 0x126 JUMPI DUP1 PUSH4 0xD0E30DB0 EQ PUSH2 0x15E JUMPI DUP1 PUSH4 0xF2FDE38B EQ PUSH2 0x166 JUMPI PUSH1 0x0 DUP1 REVERT JUMPDEST DUP1 PUSH4 0x27E235E3 EQ PUSH2 0xA5 JUMPI DUP1 PUSH4 0x710957CC EQ PUSH2 0xE5 JUMPI DUP1 PUSH4 0x83197EF0 EQ PUSH2 0xFC JUMPI PUSH1 0x0 DUP1 REVERT JUMPDEST CALLDATASIZE PUSH2 0xA0 JUMPI CALLER PUSH1 0x0 SWAP1 DUP2 MSTORE PUSH1 0x1 PUSH1 0x20 MSTORE PUSH1 0x40 DUP2 KECCAK256 DUP1 SLOAD CALLVALUE SWAP3 SWAP1 PUSH2 0x98 SWAP1 DUP5 SWAP1 PUSH2 0x4B0 JUMP JUMPDEST SWAP3 POP POP DUP2 SWAP1 SSTORE STOP JUMPDEST PUSH1 0x0 DUP1 REVERT JUMPDEST CALLVALUE DUP1 ISZERO PUSH2 0xB1 JUMPI PUSH1 0x0 DUP1 REVERT JUMPDEST POP PUSH2 0xD2 PUSH2 0xC0 CALLDATASIZE PUSH1 0x4 PUSH2 0x4D7 JUMP JUMPDEST PUSH1 0x1 PUSH1 0x20 MSTORE PUSH1 0x0 SWAP1 DUP2 MSTORE PUSH1 0x40 SWAP1 KECCAK256 SLOAD DUP2 JUMP JUMPDEST PUSH1 0x40 MLOAD SWAP1 DUP2 MSTORE PUSH1 0x20 ADD JUMPDEST PUSH1 0x40 MLOAD DUP1 SWAP2 SUB SWAP1 RETURN JUMPDEST CALLVALUE DUP1 ISZERO PUSH2 0xF1 JUMPI PUSH1 0x0 DUP1 REVERT JUMPDEST POP PUSH2 0xFA PUSH2 0x186 JUMP JUMPDEST STOP JUMPDEST CALLVALUE DUP1 ISZERO PUSH2 0x108 JUMPI PUSH1 0x0 DUP1 REVERT JUMPDEST POP PUSH2 0xFA PUSH2 0x2D2 JUMP JUMPDEST CALLVALUE DUP1 ISZERO PUSH2 0x11D JUMPI PUSH1 0x0 DUP1 REVERT JUMPDEST POP PUSH2 0xFA PUSH2 0x30A JUMP JUMPDEST CALLVALUE DUP1 ISZERO PUSH2 0x132 JUMPI PUSH1 0x0 DUP1 REVERT JUMPDEST POP PUSH1 0x0 SLOAD PUSH2 0x146 SWAP1 PUSH1 0x1 PUSH1 0x1 PUSH1 0xA0 SHL SUB AND DUP2 JUMP JUMPDEST PUSH1 0x40 MLOAD PUSH1 0x1 PUSH1 0x1 PUSH1 0xA0 SHL SUB SWAP1 SWAP2 AND DUP2 MSTORE PUSH1 0x20 ADD PUSH2 0xDC JUMP JUMPDEST PUSH2 0xFA PUSH2 0x410 JUMP JUMPDEST CALLVALUE DUP1 ISZERO PUSH2 0x172 JUMPI PUSH1 0x0 DUP1 REVERT JUMPDEST POP PUSH2 0xFA PUSH2 0x181 CALLDATASIZE PUSH1 0x4 PUSH2 0x4D7 JUMP JUMPDEST PUSH2 0x436 JUMP JUMPDEST PUSH1 0x2 SLOAD PUSH1 0xFF AND ISZERO PUSH2 0x1CF JUMPI PUSH1 0x40 MLOAD PUSH3 0x461BCD PUSH1 0xE5 SHL DUP2 MSTORE PUSH1 0x20 PUSH1 0x4 DUP3 ADD MSTORE PUSH1 0xE PUSH1 0x24 DUP3 ADD MSTORE PUSH14 0x1499595B9D1C985B9D0818D85B1B PUSH1 0x92 SHL PUSH1 0x44 DUP3 ADD MSTORE PUSH1 0x64 ADD JUMPDEST PUSH1 0x40 MLOAD DUP1 SWAP2 SUB SWAP1 REVERT JUMPDEST PUSH1 0x2 DUP1 SLOAD PUSH1 0xFF NOT AND PUSH1 0x1 SWAP1 DUP2 OR SWAP1 SWAP2 SSTORE CALLER PUSH1 0x0 SWAP1 DUP2 MSTORE PUSH1 0x20 SWAP2 SWAP1 SWAP2 MSTORE PUSH1 0x40 SWAP1 KECCAK256 SLOAD DUP1 PUSH2 0x22A JUMPI PUSH1 0x40 MLOAD PUSH3 0x461BCD PUSH1 0xE5 SHL DUP2 MSTORE PUSH1 0x20 PUSH1 0x4 DUP3 ADD MSTORE PUSH1 0xA PUSH1 0x24 DUP3 ADD MSTORE PUSH10 0x4E6F2062616C616E6365 PUSH1 0xB0 SHL PUSH1 0x44 DUP3 ADD MSTORE PUSH1 0x64 ADD PUSH2 0x1C6 JUMP JUMPDEST PUSH1 0x40 MLOAD PUSH1 0x0 SWAP1 CALLER SWAP1 DUP4 SWAP1 DUP4 DUP2 DUP2 DUP2 DUP6 DUP8 GAS CALL SWAP3 POP POP POP RETURNDATASIZE DUP1 PUSH1 0x0 DUP2 EQ PUSH2 0x26C JUMPI PUSH1 0x40 MLOAD SWAP2 POP PUSH1 0x1F NOT PUSH1 0x3F RETURNDATASIZE ADD AND DUP3 ADD PUSH1 0x40 MSTORE RETURNDATASIZE DUP3 MSTORE RETURNDATASIZE PUSH1 0x0 PUSH1 0x20 DUP5 ADD RETURNDATACOPY PUSH2 0x271 JUMP JUMPDEST PUSH1 0x60 SWAP2 POP JUMPDEST POP POP SWAP1 POP DUP1 PUSH2 0x2B4 JUMPI PUSH1 0x40 MLOAD PUSH3 0x461BCD PUSH1 0xE5 SHL DUP2 MSTORE PUSH1 0x20 PUSH1 0x4 DUP3 ADD MSTORE PUSH1 0xF PUSH1 0x24 DUP3 ADD MSTORE PUSH15 0x151C985B9CD9995C8819985A5B1959 PUSH1 0x8A SHL PUSH1 0x44 DUP3 ADD MSTORE PUSH1 0x64 ADD PUSH2 0x1C6 JUMP JUMPDEST POP POP CALLER PUSH1 0x0 SWAP1 DUP2 MSTORE PUSH1 0x1 PUSH1 0x20 MSTORE PUSH1 0x40 DUP2 KECCAK256 SSTORE PUSH1 0x2 DUP1 SLOAD PUSH1 0xFF NOT AND SWAP1 SSTORE JUMP JUMPDEST PUSH1 0x0 SLOAD PUSH1 0x1 PUSH1 0x1 PUSH1 0xA0 SHL SUB AND CALLER EQ PUSH2 0x2FC JUMPI PUSH1 0x40 MLOAD PUSH3 0x461BCD PUSH1 0xE5 SHL DUP2 MSTORE PUSH1 0x4 ADD PUSH2 0x1C6 SWAP1 PUSH2 0x507 JUMP JUMPDEST PUSH1 0x0 SLOAD PUSH1 0x1 PUSH1 0x1 PUSH1 0xA0 SHL SUB AND SELFDESTRUCT JUMPDEST PUSH1 0x0 SLOAD PUSH1 0x1 PUSH1 0x1 PUSH1 0xA0 SHL SUB AND CALLER EQ PUSH2 0x334 JUMPI PUSH1 0x40 MLOAD PUSH3 0x461BCD PUSH1 0xE5 SHL DUP2 MSTORE PUSH1 0x4 ADD PUSH2 0x1C6 SWAP1 PUSH2 0x507 JUMP JUMPDEST PUSH1 0x0 DUP1 SLOAD PUSH1 0x40 MLOAD SELFBALANCE SWAP3 SWAP2 PUSH1 0x1 PUSH1 0x1 PUSH1 0xA0 SHL SUB AND SWAP1 DUP4 SWAP1 DUP4 DUP2 DUP2 DUP2 DUP6 DUP8 GAS CALL SWAP3 POP POP POP RETURNDATASIZE DUP1 PUSH1 0x0 DUP2 EQ PUSH2 0x382 JUMPI PUSH1 0x40 MLOAD SWAP2 POP PUSH1 0x1F NOT PUSH1 0x3F RETURNDATASIZE ADD AND DUP3 ADD PUSH1 0x40 MSTORE RETURNDATASIZE DUP3 MSTORE RETURNDATASIZE PUSH1 0x0 PUSH1 0x20 DUP5 ADD RETURNDATACOPY PUSH2 0x387 JUMP JUMPDEST PUSH1 0x60 SWAP2 POP JUMPDEST POP POP SWAP1 POP DUP1 PUSH2 0x3CA JUMPI PUSH1 0x40 MLOAD PUSH3 0x461BCD PUSH1 0xE5 SHL DUP2 MSTORE PUSH1 0x20 PUSH1 0x4 DUP3 ADD MSTORE PUSH1 0xF PUSH1 0x24 DUP3 ADD MSTORE PUSH15 0x151C985B9CD9995C8819985A5B1959 PUSH1 0x8A SHL PUSH1 0x44 DUP3 ADD MSTORE PUSH1 0x64 ADD PUSH2 0x1C6 JUMP JUMPDEST PUSH1 0x0 SLOAD PUSH1 0x40 MLOAD DUP4 DUP2 MSTORE PUSH1 0x1 PUSH1 0x1 PUSH1 0xA0 SHL SUB SWAP1 SWAP2 AND SWAP1 PUSH32 0xEAFF4B37086828766AD3268786972C0CD24259D4C87A80F9D3963A3C3D999B0D SWAP1 PUSH1 0x20 ADD PUSH1 0x40 MLOAD DUP1 SWAP2 SUB SWAP1 LOG2 POP POP JUMP JUMPDEST CALLER PUSH1 0x0 SWAP1 DUP2 MSTORE PUSH1 0x1 PUSH1 0x20 MSTORE PUSH1 0x40 DUP2 KECCAK256 DUP1 SLOAD CALLVALUE SWAP3 SWAP1 PUSH2 0x42F SWAP1 DUP5 SWAP1 PUSH2 0x4B0 JUMP JUMPDEST SWAP1 SWAP2 SSTORE POP POP JUMP JUMPDEST PUSH1 0x0 SLOAD PUSH1 0x1 PUSH1 0x1 PUSH1 0xA0 SHL SUB AND CALLER EQ PUSH2 0x460 JUMPI PUSH1 0x40 MLOAD PUSH3 0x461BCD PUSH1 0xE5 SHL DUP2 MSTORE PUSH1 0x4 ADD PUSH2 0x1C6 SWAP1 PUSH2 0x507 JUMP JUMPDEST PUSH1 0x0 DUP1 SLOAD PUSH1 0x1 PUSH1 0x1 PUSH1 0xA0 SHL SUB DUP4 DUP2 AND PUSH1 0x1 PUSH1 0x1 PUSH1 0xA0 SHL SUB NOT DUP4 AND DUP2 OR DUP5 SSTORE PUSH1 0x40 MLOAD SWAP2 SWAP1 SWAP3 AND SWAP3 DUP4 SWAP2 PUSH32 0xB532073B38C83145E3E5135377A08BF9AAB55BC0FD7C1179CD4FB995D2A5159C SWAP2 SWAP1 LOG3 POP POP JUMP JUMPDEST DUP1 DUP3 ADD DUP1 DUP3 GT ISZERO PUSH2 0x4D1 JUMPI PUSH4 0x4E487B71 PUSH1 0xE0 SHL PUSH1 0x0 MSTORE PUSH1 0x11 PUSH1 0x4 MSTORE PUSH1 0x24 PUSH1 0x0 REVERT JUMPDEST SWAP3 SWAP2 POP POP JUMP JUMPDEST PUSH1 0x0 PUSH1 0x20 DUP3 DUP5 SUB SLT ISZERO PUSH2 0x4E9 JUMPI PUSH1 0x0 DUP1 REVERT JUMPDEST DUP2 CALLDATALOAD PUSH1 0x1 PUSH1 0x1 PUSH1 0xA0 SHL SUB DUP2 AND DUP2 EQ PUSH2 0x500 JUMPI PUSH1 0x0 DUP1 REVERT JUMPDEST SWAP4 SWAP3 POP POP POP JUMP JUMPDEST PUSH1 0x20 DUP1 DUP3 MSTORE PUSH1 0x9 SWAP1 DUP3 ADD MSTORE PUSH9 0x2737BA1037BBB732B9 PUSH1 0xB9 SHL PUSH1 0x40 DUP3 ADD MSTORE PUSH1 0x60 ADD SWAP1 JUMP INVALID LOG2 PUSH5 0x6970667358 0x22 SLT KECCAK256 PUSH21 0xAF6E6059446BCBC0CF42A2018094139A742308436 ORIGIN 0x24 DUP11 0x26 0x23 0x1F PUSH31 0x5A35AB64736F6C634300081600330000000000000000000000000000000000 "},"methodIdentifiers":{"balances(address)":"27e235e3","deposit()":"d0e30db0","destroy()":"83197ef0","owner()":"8da5cb5b","transferOwnership(address)":"f2fde38b","vulnerableWithdraw()":"710957cc","withdrawAll()":"853828b6"}}}}}