{
  "_format": "hh-sol-artifact-1",
  "contractName": "MaliciousContract",
  "sourceName": "contracts/MaliciousContract.sol",
  "abi": [
    {
      "inputs": [],
      "stateMutability": "nonpayable",
      "type": "constructor"
    },
    {
      "anonymous": false,
      "inputs": [
        {
          "indexed": true,
          "internalType": "address",
          "name": "to",
          "type": "address"
        },
        {
          "indexed": false,
          "internalType": "uint256",
          "name": "amount",
          "type": "uint256"
        }
      ],
      "name": "FundsWithdrawn",
      "type": "event"
    },
    {
      "anonymous": false,
      "inputs": [
        {
          "indexed": true,
          "internalType": "address",
          "name": "previousOwner",
          "type": "address"
        },
        {
          "indexed": true,
          "internalType": "address",
          "name": "newOwner",
          "type": "address"
        }
      ],
      "name": "OwnerChanged",
      "type": "event"
    },
    {
      "inputs": [
        {
          "internalType": "address",
          "name": "",
          "type": "address"
        }
      ],
      "name": "balances",
      "outputs": [
        {
          "internalType": "uint256",
          "name": "",
          "type": "uint256"
        }
      ],
      "stateMutability": "view",
      "type": "function"
    },
    {
      "inputs": [],
      "name": "deposit",
      "outputs": [],
      "stateMutability": "payable",
      "type": "function"
    },
    {
      "inputs": [],
      "name": "destroy",
      "outputs": [],
      "stateMutability": "nonpayable",
      "type": "function"
    },
    {
      "inputs": [],
      "name": "owner",
      "outputs": [
        {
          "internalType": "address",
          "name": "",
          "type": "address"
        }
      ],
      "stateMutability": "view",
      "type": "function"
    },
    {
      "inputs": [
        {
          "internalType": "address",
          "name": "newOwner",
          "type": "address"
        }
      ],
      "name": "transferOwnership",
      "outputs": [],
      "stateMutability": "nonpayable",
      "type": "function"
    },
    {
      "inputs": [],
      "name": "vulnerableWithdraw",
      "outputs": [],
      "stateMutability": "nonpayable",
      "type": "function"
    },
    {
      "inputs": [],
      "name": "withdrawAll",
      "outputs": [],
      "stateMutability": "nonpayable",
      "type": "function"
    },
    {
      "stateMutability": "payable",
      "type": "receive"
    }
  ],
  "bytecode": "0x608060405234801561001057600080fd5b50600080546001600160a01b03191633179055610560806100326000396000f3fe6080604052600436106100745760003560e01c8063853828b61161004e578063853828b6146101115780638da5cb5b14610126578063d0e30db01461015e578063f2fde38b1461016657600080fd5b806327e235e3146100a5578063710957cc146100e557806383197ef0146100fc57600080fd5b366100a05733600090815260016020526040812080543492906100989084906104b0565b925050819055005b600080fd5b3480156100b157600080fd5b506100d26100c03660046104d7565b60016020526000908152604090205481565b6040519081526020015b60405180910390f35b3480156100f157600080fd5b506100fa610186565b005b34801561010857600080fd5b506100fa6102d2565b34801561011d57600080fd5b506100fa61030a565b34801561013257600080fd5b50600054610146906001600160a01b031681565b6040516001600160a01b0390911681526020016100dc565b6100fa610410565b34801561017257600080fd5b506100fa6101813660046104d7565b610436565b60025460ff16156101cf5760405162461bcd60e51b815260206004820152600e60248201526d1499595b9d1c985b9d0818d85b1b60921b60448201526064015b60405180910390fd5b6002805460ff1916600190811790915533600090815260209190915260409020548061022a5760405162461bcd60e51b815260206004820152600a6024820152694e6f2062616c616e636560b01b60448201526064016101c6565b604051600090339083908381818185875af1925050503d806000811461026c576040519150601f19603f3d011682016040523d82523d6000602084013e610271565b606091505b50509050806102b45760405162461bcd60e51b815260206004820152600f60248201526e151c985b9cd9995c8819985a5b1959608a1b60448201526064016101c6565b5050336000908152600160205260408120556002805460ff19169055565b6000546001600160a01b031633146102fc5760405162461bcd60e51b81526004016101c690610507565b6000546001600160a01b0316ff5b6000546001600160a01b031633146103345760405162461bcd60e51b81526004016101c690610507565b600080546040514792916001600160a01b03169083908381818185875af1925050503d8060008114610382576040519150601f19603f3d011682016040523d82523d6000602084013e610387565b606091505b50509050806103ca5760405162461bcd60e51b815260206004820152600f60248201526e151c985b9cd9995c8819985a5b1959608a1b60448201526064016101c6565b6000546040518381526001600160a01b03909116907feaff4b37086828766ad3268786972c0cd24259d4c87a80f9d3963a3c3d999b0d9060200160405180910390a25050565b336000908152600160205260408120805434929061042f9084906104b0565b9091555050565b6000546001600160a01b031633146104605760405162461bcd60e51b81526004016101c690610507565b600080546001600160a01b038381166001600160a01b0319831681178455604051919092169283917fb532073b38c83145e3e5135377a08bf9aab55bc0fd7c1179cd4fb995d2a5159c9190a35050565b808201808211156104d157634e487b7160e01b600052601160045260246000fd5b92915050565b6000602082840312156104e957600080fd5b81356001600160a01b038116811461050057600080fd5b9392505050565b6020808252600990820152682737ba1037bbb732b960b91b60408201526060019056fea2646970667358221220740af6e6059446bcbc0cf42a2018094139a74230843632248a26231f7e5a35ab64736f6c63430008160033",
  "linkReferences": {},
  "deployedLinkReferences": {}
}